:100000000C945D000C9485000C9485000C94850084
:100010000C9485000C9485000C9485000C9485004C
:100020000C9485000C9485000C9485000C94BC0302
:100030000C9485000C9485000C9485000C9485002C
:100040000C9472030C9485000C9440030C941A03D6
:100050000C9485000C9485000C9485000C9485000C
:100060000C9485000C94850000000008000201003B
:100070000003040700000000000000000000000072
:10008000250028002B0000000000240027002A0083
:10009000040404040404040402020202020203032E
:1000A0000303030301020408102040800102040836
:1000B0001020010204081020780411241FBECFEF85
:1000C000D8E0DEBFCDBF11E0A0E0B1E0E6E6F3E1AD
:1000D00002C005900D92AC33B107D9F722E0ACE332
:1000E000B1E001C01D92A131B207E1F710E0CDE50A
:1000F000D0E004C02197FE010E94B907CC35D1079A
:10010000C9F70E94D5040C94B1090C940000AF9279
:10011000BF92CF92DF92EF92FF920F931F93CF93F4
:10012000DF936C017B018B01040F151FEB015E0156
:10013000AE18BF08C017D10759F06991D601ED91EB
:10014000FC910190F081E02DC6010995892B79F78A
:10015000C501DF91CF911F910F91FF90EF90DF903C
:10016000CF90BF90AF900895CF93DF93FC0144816F
:1001700055816081718188E491E00E948700EC01E3
:1001800042E050E068E171E088E491E00E9487007D
:100190008C0F9D1FDF91CF910895FC01538D448DED
:1001A000252F30E0842F90E0821B930B541710F022
:1001B000CF96089501970895FC01918D828D98172F
:1001C00061F0A28DAE0FBF2FB11D5D968C91928D07
:1001D0009F5F9F73928F90E008958FEF9FEF089538
:1001E000FC01918D828D981731F0828DE80FF11D01
:1001F000858D90E008958FEF9FEF0895FC01918D1C
:10020000228D892F90E0805C9F4F821B91098F7314
:100210009927089588E491E00E94FE0021E0892B4F
:1002200009F420E0822F089580E090E0892B29F0E6
:100230000E940A0181110C9400000895FC01A48D14
:10024000A80FB92FB11DA35ABF4F2C91848D90E0F8
:1002500001968F739927848FA689B7892C93A089DB
:10026000B1898C91837080648C93938D848D981365
:1002700006C00288F389E02D80818F7D80830895F8
:10028000EF92FF920F931F93CF93DF93EC0181E0E6
:10029000888F9B8D8C8D98131AC0E889F98980818D
:1002A00085FF15C09FB7F894EE89FF896083E889C0
:1002B000F98980818370806480839FBF81E090E0B2
:1002C000DF91CF911F910F91FF90EF900895F62E3F
:1002D0000B8D10E00F5F1F4F0F731127E02E8C8DD9
:1002E0008E110CC00FB607FCFACFE889F98980811E
:1002F00085FFF5CFCE010E941E01F1CFEB8DEC0FF3
:10030000FD2FF11DE35AFF4FF0829FB7F8940B8F3A
:10031000EA89FB8980818062CFCFCF93DF93EC01A4
:10032000888D8823B9F0AA89BB89E889F9898C91DD
:1003300085FD03C0808186FD0DC00FB607FCF7CF99
:100340008C9185FFF2CF808185FFEDCFCE010E9499
:100350001E01E9CFDF91CF91089590E0FC01E859AB
:10036000FF4F2491FC01EC55FF4F3491FC01E05705
:10037000FF4FE491EE23C9F0222339F0233001F13D
:10038000A8F4213019F1223029F1F0E0EE0FFF1F1F
:10039000E458FF4FA591B4918FB7F894EC91611197
:1003A00026C030953E233C938FBF08952730A9F097
:1003B0002830C9F0243049F7809180008F7D03C038
:1003C000809180008F7780938000DFCF84B58F7716
:1003D00084BDDBCF84B58F7DFBCF8091B0008F775C
:1003E0008093B000D2CF8091B0008F7DF9CF3E2BAB
:1003F000DACF3FB7F8948091420190914301A091E8
:100400004401B091450126B5A89B05C02F3F19F0C6
:100410000196A11DB11D3FBFBA2FA92F982F882784
:10042000BC01CD01620F711D811D911D42E0660F5F
:10043000771F881F991F4A95D1F708958F929F9231
:10044000AF92BF92CF92DF92EF92FF920E94F9019A
:100450004B015C0184E6C82ED12CE12CF12C0E94CA
:10046000F901681979098A099B09683E7340810579
:100470009105A8F321E0C21AD108E108F10888EE3D
:10048000880E83E0981EA11CB11CC114D104E104A4
:10049000F10429F7FF90EF90DF90CF90BF90AF90DD
:1004A0009F908F9008950F931F93CF93DF93EC014C
:1004B00088819981009759F02A813B812617370757
:1004C00030F081E0DF91CF911F910F9108958B0162
:1004D0006F5F7F4F0E94E408009759F099838883EB
:1004E0001B830A832C813D81232B59F7FC01108249
:1004F000E8CF80E0E7CFEF92FF920F931F93CF9367
:10050000DF936115710541F480E0DF91CF911F9178
:100510000F91FF90EF90089541155105B1F07B01C7
:10052000EC010C811D81040F151FB8010E945302BC
:10053000882351F3288139818C819D81B701820FF5
:10054000931F0E94AA091D830C8381E0DECFCF9305
:10055000DF93EC0188819981009711F00E945B087C
:10056000198218821D821C821B821A82DF91CF9110
:100570000895EF92FF920F931F93CF93DF93EC01B7
:100580007B018A01BA010E94530281110BC0CE0186
:100590000E94A702CE01DF91CF911F910F91FF9092
:1005A000EF9008951D830C83B701888199810E9483
:1005B000AA09F0CFEF92FF920F931F93CF93DF938F
:1005C000CDB7DEB762970FB6F894DEBF0FBECDBFD2
:1005D0008C01CB01F80111821082138212821582E4
:1005E00014824AE09E012F5F3F4F7901B9010E94BA
:1005F000D706F70101900020E9F73197AF014E19B6
:100600005F09B701C8010E94B90262960FB6F8945B
:10061000DEBF0FBECDBFDF91CF911F910F91FF9035
:10062000EF900895FC0180819181009711F00C9466
:100630005B0808951F920F920FB60F9211242F930B
:100640003F934F935F936F937F938F939F93AF935A
:10065000BF93EF93FF9388E491E00E941E01FF9106
:10066000EF91BF91AF919F918F917F916F915F912A
:100670004F913F912F910F900FBE0F901F901895A3
:100680001F920F920FB60F9211242F938F939F9367
:10069000EF93FF93E0915801F09159018081E0912F
:1006A0005E01F0915F0182FD1BC09081809161012C
:1006B0008F5F8F7320916201821741F0E091610199
:1006C000F0E0E85BFE4F958F80936101FF91EF9121
:1006D0009F918F912F910F900FBE0F901F901895A3
:1006E0008081F4CF1F920F920FB60F9211242F9397
:1006F0003F938F939F93AF93BF9380913E019091CF
:100700003F01A0914001B091410130913D0123E0B2
:10071000230F2D3758F50196A11DB11D20933D01E2
:1007200080933E0190933F01A0934001B09341011B
:100730008091420190914301A0914401B091450103
:100740000196A11DB11D8093420190934301A09396
:100750004401B0934501BF91AF919F918F913F911B
:100760002F910F900FBE0F901F90189526E8230F22
:100770000296A11DB11DD2CF1F920F920FB60F92FC
:1007800011242F933F934F935F936F937F938F9396
:100790009F93AF93BF93CF93DF93EF93FF9380919A
:1007A0003C01C0910902D0E087FF24C0109285006F
:1007B0001092840080913C018F5F80933C01809176
:1007C0003C01082E000C990B8C179D0724F4809196
:1007D0003C018C30C4F18091840090918500049696
:1007E00080349C4908F47AC08091840090918500FF
:1007F000049676C080913C01082E000C990B8C1752
:100800009D07C4F6E0913C018E2FEE0F990BFC0181
:10081000EE0FFF1FE80FF91FEB51FE4F808186FF9F
:10082000C9CFE0913C018E2FEE0F990BFC01EE0F2A
:10083000FF1FE80FF91FEB51FE4F808160E08F73BF
:100840000E94AD01B7CF2091840030918500E091E6
:100850003C018E2FEE0F990BFC01EE0FFF1FE80FEE
:10086000F91FEB51FE4F81819281820F931F90936C
:10087000890080938800E0913C018E2FEE0F990B48
:10088000FC01EE0FFF1FE80FF91FEB51FE4F8081B7
:1008900086FF11C0E0913C018E2FEE0F990BFC01F9
:1008A000EE0FFF1FE80FF91FEB51FE4F808161E053
:1008B0008F730E94AD01FF91EF91DF91CF91BF91B6
:1008C000AF919F918F917F916F915F914F913F91E8
:1008D0002F910F900FBE0F901F90189580E49CE908
:1008E00090938900809388008FEF80933C01E3CF41
:1008F00010924B0110924A0188EE93E0A0E0B0E024
:1009000080934C0190934D01A0934E01B0934F0101
:100910008AE091E0909349018093480185EC90E052
:10092000909355018093540184EC90E0909357018B
:100930008093560180EC90E0909359018093580188
:1009400081EC90E090935B0180935A0182EC90E0FF
:1009500090935D0180935C0186EC90E090935F0141
:1009600080935E0110926101109262011092630106
:1009700010926401809109028C3098F491E0980FF4
:100980009093090280930A0290E0FC01EE0FFF1F92
:10099000E80FF91FEB51FE4F88EB9BE092838183B8
:1009A00008958FEF80930A020895CF93DF93CDB718
:1009B000DEB72C970FB6F894DEBF0FBECDBF78948C
:1009C00084B5826084BD84B5816084BD85B5826054
:1009D00085BD85B5816085BD80916E008160809305
:1009E0006E0010928100809181008260809381006E
:1009F000809181008160809381008091800081607E
:100A0000809380008091B10084608093B1008091D8
:100A1000B00081608093B00080917A008460809300
:100A20007A0080917A00826080937A0080917A00C7
:100A3000816080937A0080917A00806880937A0048
:100A40001092C100E0915801F091590182E0808339
:100A5000E0915401F09155011082E0915601F0911E
:100A600057018FEC808310926001E0915C01F0915E
:100A70005D0186E08083E0915A01F0915B01808105
:100A800080618083E0915A01F0915B0180818860F0
:100A90008083E0915A01F0915B01808180688083BE
:100AA000E0915A01F0915B0180818F7D8083E2EBC0
:100AB000F0E02491EEE9F0E084918823C9F090E021
:100AC000880F991FFC01EA57FF4F45915491FC0193
:100AD000E458FF4FA591B4919FB7F894FA01808133
:100AE0002095822380838C91E22FE823EC939FBF93
:100AF00080910A028C3008F068C0EDEAF0E02491A1
:100B0000E9E9F0E08491882399F090E0880F991F3B
:100B1000FC01EA57FF4FA591B491FC01E458FF4F47
:100B2000859194918FB7F894EC91E22BEC938FBF61
:100B300080910A02282F30E0F901EE0FFF1FE20F2B
:100B4000F31FEB51FE4F9081907C9960908310923F
:100B50000B0210920C022CE0622F0E94A607829FCB
:100B6000B001112430E020E0AB01420F531FFA0125
:100B7000EE0FFF1FE40FF51FEB51FE4F908196FD26
:100B800016C02F5F3F4F2C30310571F781110FC018
:100B90001092800082E08093810010928500109274
:100BA0008400B19A80916F00826080936F00E09121
:100BB0000A028E2F90E0FC01EE0FFF1FE80FF91FD5
:100BC000EB51FE4F808180648083E0E4CE2EF4EB15
:100BD0004F2E512C612C712CC0927C0080917A0098
:100BE000806480937A0080917A0086FDFCCF8091AA
:100BF000780060917900762F682F70934701609399
:100C00004601CE0101960E94DA0218861F821A86DA
:100C100019861C861B864CE050E06BE171E0CE012A
:100C200007960E94B9024D815E8169817A81CE0169
:100C300007960E947B02811104C0CE0107960E9494
:100C4000A702CE0107960E94B400CE0107960E942B
:100C50001203CE0101960E9412030E941E02A0916F
:100C60004601B091470124EB30E00E94B2072FEF1C
:100C700033E040E050E00E940C077901253B31054C
:100C80001CF074EBE72EF12CF7FE02C0F12CE12CE6
:100C9000B701CE0101960E94DA0218861F821A86D9
:100CA00019861C861B8642E150E068E271E0CE01A5
:100CB00007960E94B9024D815E8169817A81CE01D9
:100CC00007960E947B02811104C0CE0107960E9404
:100CD000A702CE0107960E94B400CE0107960E949B
:100CE0001203CE0101960E9412030E941E02D090B0
:100CF0000A028BE08D1508F44DC080910C0248E586
:100D0000242E42E0342E281A310887FD3394220C19
:100D1000331C220C331C80910B0208E810E0081BE6
:100D2000110987FD1395000F111F000F111F4801B6
:100D3000012E000CAA08BB089101032C000C440BE7
:100D4000550B281939094A095B09D7010E94360752
:100D5000A30192010E940C07820E931EA41EB51ED1
:100D6000801691062CF08101821493040CF4840106
:100D700002501109000F111F2FB7F8948D2D90E02C
:100D8000FC01EE0FFF1FE80FF91FEB51FE4F12831E
:100D900001832FBFE0E0F0E0EF2B09F41DCF0E94AC
:100DA0000A01882309F418CF0E94000015CFBB2741
:100DB0004A3031F4992322F4BDE2909581959F4FFA
:100DC0000C94E306BB27FB015527AA27880F991F20
:100DD000AA1FA41710F0A41B83955051B9F7A05D6A
:100DE000AA3308F0A95DA193009779F7B111B193E7
:100DF0001192CB010C94FC06DC01FC01672F719170
:100E00007723E1F7329704C07C916D9370836291F0
:100E1000AE17BF07C8F30895052E97FB1EF4009484
:100E20000E94230757FD07D00E94750707FC03D0D7
:100E30004EF40C94230750954095309521953F4FE3
:100E40004F4F5F4F089590958095709561957F4FB6
:100E50008F4F9F4F08950E949707A59F900DB49FB5
:100E6000900DA49F800D911D11240895B7FF0C943F
:100E70002B070E942B07821B930B08952F923F9202
:100E80004F925F926F927F928F929F92AF92BF929A
:100E9000CF92DF92EF92FF920F931F93CF93DF9346
:100EA000CDB7DEB7CA1BDB0B0FB6F894DEBF0FBEA3
:100EB000CDBF09942A88398848885F846E847D84F0
:100EC0008C849B84AA84B984C884DF80EE80FD80F2
:100ED0000C811B81AA81B981CE0FD11D0FB6F89468
:100EE000DEBF0FBECDBFED010895A1E21A2EAA1BF1
:100EF000BB1BFD010DC0AA1FBB1FEE1FFF1FA217CA
:100F0000B307E407F50720F0A21BB30BE40BF50BC6
:100F1000661F771F881F991F1A9469F7609570954F
:100F2000809590959B01AC01BD01CF010895A29FD2
:100F3000B001B39FC001A39F700D811D1124911DAD
:100F4000B29F700D811D1124911D0895991B79E0A8
:100F500004C0991F961708F0961B881F7A95C9F749
:100F6000809508950E949707B7FF0895821B930B01
:100F70000895EE0FFF1F0590F491E02D09940F9353
:100F80001F93CF93DF938230910510F482E090E0BD
:100F9000E0910F02F091100230E020E0B0E0A0E01C
:100FA000309799F42115310509F44AC0281B390BF3
:100FB00024303105D8F58A819B816115710589F14D
:100FC000FB0193838283FE0111C040815181028124
:100FD000138148175907E0F04817590799F41097FB
:100FE00061F012960C93129713961C933296CF01D0
:100FF000DF91CF911F910F91089500930F021093ED
:101000001002F4CF2115310551F04217530738F083
:10101000A901DB019A01BD01DF01F801C1CFEF0198
:10102000F9CF9093100280930F02CDCFFE01E20F13
:10103000F31F819391932250310939832883D7CFAD
:1010400020910D0230910E02232B41F420910201D8
:101050003091030130930E0220930D022091000184
:10106000309101012115310541F42DB73EB7409172
:10107000040150910501241B350BE0910D02F09104
:101080000E02E217F307A0F42E1B3F0B28173907B7
:1010900078F0AC014E5F5F4F2417350748F04E0FD4
:1010A0005F1F50930E0240930D02819391939FCF47
:1010B000F0E0E0E09CCFCF93DF930097E9F0FC01F4
:1010C000329713821282A0910F02B0911002ED01AB
:1010D00030E020E01097A1F420813181820F931F2E
:1010E00020910D0230910E022817390709F061C0D6
:1010F000F0930E02E0930D02DF91CF910895EA0183
:10110000CE17DF07E8F54A815B819E014115510545
:10111000B1F7E901FB83EA8349915991C40FD51FC7
:10112000EC17FD0761F4808191810296840F951F71
:10113000E90199838883828193819B838A83F0E08C
:10114000E0E012968D919C9113970097B9F52D913F
:101150003C911197CD010296820F931F20910D02B1
:1011600030910E022817390739F6309751F5109251
:10117000100210920F02B0930E02A0930D02BCCF8A
:10118000D383C28340815181840F951FC817D9072B
:1011900061F44E5F5F4F88819981480F591F5183D9
:1011A00040838A819B81938382832115310509F0D5
:1011B000B0CFF0931002E0930F029ECFFD01DC014F
:1011C000C0CF13821282D7CFB0E0A0E0EAEEF8E001
:1011D0000C9440078C01009751F4CB010E94BF078B
:1011E0008C01C801CDB7DEB7E0E10C945C07FC01CF
:1011F000E60FF71F9C0122503109E217F30708F4AC
:101200009DC0D901CD91DC911197C617D70798F0F1
:10121000C530D10530F3CE0104978617970708F340
:10122000C61BD70B2297C193D1936D937C93CF01AB
:101230000E945B08D6CF5B01AC1ABD0A4C018C0E34
:101240009D1EA0910F02B0911002512C412CF12C47
:10125000E12C109731F580910D0290910E028815C6
:10126000990509F05CC04616570608F058C08091F1
:10127000000190910101009741F48DB79EB7409114
:10128000040150910501841B950BE817F90708F03C
:1012900055C0F0930E02E0930D02F9017183608353
:1012A000A0CF8D919C91119712966C9012971396E6
:1012B0007C901397A815B90559F56C0142E0C40E4E
:1012C000D11CCA14DB0420F1AC014A195B09DA0114
:1012D0001296159780F06282738251834083D90100
:1012E0006D937C93E114F10471F0D7011396FC9394
:1012F000EE93129776CF22968C0F9D1FF901918362
:101300008083F301EFCFF0931002E0930F0269CFD7
:101310004816590608F42C017D01D3019ACFCB0160
:101320000E94BF077C01009749F0AE01B8010E94FE
:10133000A109C8010E945B08870153CF10E000E0BB
:1013400050CFFB01DC0102C001900D924150504092
:10135000D8F70895FB01DC0101900D920020E1F720
:061360000895F894FFCF90
:101366000000110280000000000040018700CD004F
:101376008D01FE00DC00F0000D0A00506F74204461
:1013860065676572693A2000636F6E73747261698E
:0C1396006E206465676572693A200000F3
:00000001FF
