:100000000C9453000C947B000C947B000C947B00AC
:100010000C947B000C947B000C947B000C947B0074
:100020000C947B000C947B000C947B000C947B0064
:100030000C947B000C947B000C947B000C947B0054
:100040000C9414020C947B000C94E2010C94BC01FF
:100050000C947B000C947B000C947B000C947B0034
:100060000C947B000C947B0000000000250028000D
:100070002B0000000000240027002A0004040404D0
:100080000404040402020202020203030303030342
:10009000010204081020408001020408102001021F
:1000A00004081020A60311241FBECFEFD8E0DEBF46
:1000B000CDBF11E0A0E0B1E0EAEFF7E002C00590AB
:1000C0000D92AE32B107D9F721E0AEE2B1E001C046
:1000D0001D92A63DB207E1F710E0C3E5D0E004C0F1
:1000E0002197FE010E94F503C235D107C9F70E948E
:1000F0005E020C94FB030C940000AF92BF92CF926F
:10010000DF92EF92FF920F931F93CF93DF936C01D7
:100110007B018B01040F151FEB015E01AE18BF08B8
:10012000C017D10759F06991D601ED91FC9101906A
:10013000F081E02DC6010995892B79F7C501DF9182
:10014000CF911F910F91FF90EF90DF90CF90BF90D4
:10015000AF900895FC01538D448D252F30E0842FFE
:1001600090E0821B930B541710F0CF9608950197DF
:100170000895FC01918D828D981761F0A28DAE0FCC
:10018000BF2FB11D5D968C91928D9F5F9F73928F53
:1001900090E008958FEF9FEF0895FC01918D828D7F
:1001A000981731F0828DE80FF11D858D90E008954C
:1001B0008FEF9FEF0895FC01918D228D892F90E0A4
:1001C000805C9F4F821B91098F739927089589E363
:1001D00091E00E94DB0021E0892B09F420E0822FCE
:1001E000089580E090E0892B29F00E94E7008111BA
:1001F0000C9400000895FC01A48DA80FB92FB11D27
:10020000A35ABF4F2C91848D90E001968F7399274C
:10021000848FA689B7892C93A089B1898C9183702A
:1002200080648C93938D848D981306C00288F38923
:10023000E02D80818F7D80830895EF92FF920F9350
:100240001F93CF93DF93EC0181E0888F9B8D8C8D82
:1002500098131AC0E889F989808185FF15C09FB776
:10026000F894EE89FF896083E889F9898081837039
:10027000806480839FBF81E090E0DF91CF911F91E8
:100280000F91FF90EF900895F62E0B8D10E00F5F09
:100290001F4F0F731127E02E8C8D8E110CC00FB6DF
:1002A00007FCFACFE889F989808185FFF5CFCE0177
:1002B0000E94FB00F1CFEB8DEC0FFD2FF11DE35AF7
:1002C000FF4FF0829FB7F8940B8FEA89FB898081FA
:1002D0008062CFCFCF93DF93EC01888D8823B9F074
:1002E000AA89BB89E889F9898C9185FD03C0808141
:1002F00086FD0DC00FB607FCF7CF8C9185FFF2CFBE
:10030000808185FFEDCFCE010E94FB00E9CFDF9118
:10031000CF9108953FB7F8948091330190913401C3
:10032000A0913501B091360126B5A89B05C02F3F9D
:1003300019F00196A11DB11D3FBFBA2FA92F982F0B
:100340008827BC01CD01620F711D811D911D42E006
:10035000660F771F881F991F4A95D1F70895FC01F2
:1003600001900020E9F73197AF01481B590BBC0100
:1003700089E391E00C947D001F920F920FB60F92CB
:1003800011242F933F934F935F936F937F938F939A
:100390009F93AF93BF93EF93FF9389E391E00E9404
:1003A000FB00FF91EF91BF91AF919F918F917F9152
:1003B0006F915F914F913F912F910F900FBE0F90D2
:1003C0001F9018951F920F920FB60F9211242F9322
:1003D0008F939F93EF93FF93E0914901F0914A012E
:1003E0008081E0914F01F091500182FD1BC090810E
:1003F000809152018F5F8F7320915301821741F0DA
:10040000E0915201F0E0E75CFE4F958F809352013E
:10041000FF91EF919F918F912F910F900FBE0F90B1
:100420001F9018958081F4CF1F920F920FB60F92F4
:1004300011242F933F938F939F93AF93BF938091FA
:100440002F0190913001A0913101B0913201309192
:100450002E0123E0230F2D3758F50196A11DB11D64
:1004600020932E0180932F0190933001A0933101AE
:10047000B09332018091330190913401A091350104
:10048000B09136010196A11DB11D80933301909367
:100490003401A0933501B0933601BF91AF919F9184
:1004A0008F913F912F910F900FBE0F901F90189535
:1004B00026E8230F0296A11DB11DD2CFCF93DF9363
:1004C000CDB7DEB7A1970FB6F894DEBF0FBECDBF94
:1004D000789484B5826084BD84B5816084BD85B51F
:1004E000826085BD85B5816085BD80916E0081602B
:1004F00080936E00109281008091810082608093D1
:1005000081008091810081608093810080918000D2
:100510008160809380008091B10084608093B100FD
:100520008091B00081608093B00080917A008460F7
:1005300080937A0080917A00826080937A00809123
:100540007A00816080937A0080917A00806880933D
:100550007A001092C100E0914901F0914A0182E0D5
:100560008083E0914501F09146011082E0914701BE
:10057000F09148018FEC808310925101E0914D0180
:10058000F0914E0186E08083E0914B01F0914C01A7
:10059000808180618083E0914B01F0914C018081EA
:1005A00088608083E0914B01F0914C0180818068EC
:1005B0008083E0914B01F0914C0180818F7D80839D
:1005C000EEE9F0E02491EAE8F0E084918823C9F0B4
:1005D00090E0880F991FFC01EE58FF4F4591549110
:1005E000FC01E859FF4FA591B4919FB7F894FA0127
:1005F00080812095822380838C91E22FE823EC93E5
:100600009FBF82E191E00E94AF018DE191E00E94E5
:10061000AF0190E4392E2AE0822E912CA12CB12C2E
:1006200000E010E030927C0080917A00806480933A
:100630007A0080917A0086FDFCCF909178008091BD
:10064000790089279827892790933801809337016B
:1006500080E291E00E94AF01C0903701D090380154
:100660000D2C000CEE08FF08F7FE5AC06DE289E37E
:1006700091E00E941D0122273327A9012C193D0971
:100680004E095F0919A2CE0181967C01CA01B90108
:10069000A50194010E94D303605DF70162937F017D
:1006A000211531054105510589F7E114F10419F0CF
:1006B000C7010E94AF018DE191E00E94AF010E944D
:1006C0008A012B013C0184EFC82EDD24D394E12C58
:1006D000F12C0E948A016419750986099709683E00
:1006E000734081059105A8F3F1E0CF1AD108E10824
:1006F000F10828EE420E23E0521E611C711CC11449
:10070000D104E104F10429F70115110509F48ACF98
:100710000E94E700882309F485CF0E94000082CF61
:10072000A701960119A2CE0181967C01CA01B901E7
:10073000A50194010E94D303605DF70162937F01DC
:10074000211531054105510589F7AFCFE9E3F1E006
:100750001382128288EE93E0A0E0B0E08483958358
:10076000A683B78384E091E09183808385EC90E059
:100770009587848784EC90E09787868780EC90E06B
:10078000918B808B81EC90E0938B828B82EC90E05C
:10079000958B848B86EC90E0978B868B118E128ED6
:1007A000138E148E0895A1E21A2EAA1BBB1BFD0105
:1007B0000DC0AA1FBB1FEE1FFF1FA217B307E40740
:1007C000F50720F0A21BB30BE40BF50B661F771F98
:1007D000881F991F1A9469F7609570958095909578
:1007E0009B01AC01BD01CF010895EE0FFF1F0590E5
:0A07F000F491E02D0994F894FFCF76
:1007FA00000000001D017D00AA006A01DB00B900AB
:10080A00CD004261736C6164692E2E2E000D0A00C0
:0E081A00506F74204465676572693A200000D3
:00000001FF
