:100000000C945C000C9479000C9479000C947900A9
:100010000C9479000C9479000C9479000C9479007C
:100020000C9479000C9479000C9479000C9479006C
:100030000C9479000C9479000C9479000C9479005C
:100040000C94F8000C9479000C9479000C947900CD
:100050000C9479000C9479000C9479000C9479003C
:100060000C9479000C947900000000002400270013
:100070002A0000000000250028002B0004040404CE
:100080000404040402020202020203030303030342
:10009000010204081020408001020408102001021F
:1000A00004081020000000080002010000030407FB
:1000B000000000000000000011241FBECFEFD8E0B8
:1000C000DEBFCDBF11E0A0E0B1E0EAEDF4E002C098
:1000D00005900D92A030B107D9F721E0A0E0B1E082
:1000E00001C01D92A930B207E1F70E9442010C94B1
:1000F0006B020C94000090E0FC01EC55FF4F249142
:10010000FC01E057FF4F3491FC01E458FF4FE491AC
:10011000EE23C9F0222339F0233001F1A8F4213075
:1001200019F1223029F1F0E0EE0FFF1FEE58FF4FDA
:10013000A591B4918FB7F894EC91611126C03095D8
:100140003E233C938FBF08952730A9F02830C9F093
:10015000243049F7809180008F7D03C0809180001A
:100160008F7780938000DFCF84B58F7784BDDBCF1E
:1001700084B58F7DFBCF8091B0008F778093B000E6
:10018000D2CF8091B0008F7DF9CF3E2BDACFCF93C5
:10019000DF9390E0FC01E057FF4F249184589F4F7C
:1001A000FC0184918823D1F090E0880F991FFC0115
:1001B000E859FF4FA591B491FC01EE58FF4FC5914E
:1001C000D49161110EC09FB7F8948C91E22FE09505
:1001D0008E238C932881E223E8839FBFDF91CF9108
:1001E00008958FB7F894EC91E22BEC938FBFF6CF84
:1001F0001F920F920FB60F9211242F933F938F935C
:100200009F93AF93BF938091050190910601A091B8
:100210000701B09108013091040123E0230F2D372D
:1002200058F50196A11DB11D20930401809305018D
:1002300090930601A0930701B093080180910001FB
:1002400090910101A0910201B09103010196A11DBD
:10025000B11D8093000190930101A0930201B0931E
:100260000301BF91AF919F918F913F912F910F907B
:100270000FBE0F901F90189526E8230F0296A11D20
:10028000B11DD2CF789484B5826084BD84B581607D
:1002900084BD85B5826085BD85B5816085BD809151
:1002A0006E00816080936E001092810080918100C9
:1002B00082608093810080918100816080938100C1
:1002C000809180008160809380008091B100846083
:1002D0008093B1008091B00081608093B0008091E4
:1002E0007A00846080937A0080917A0082608093A3
:1002F0007A0080917A00816080937A0080917A0000
:10030000806880937A001092C10060E08EE00E94C5
:10031000C70061E089E00E94C700D0E488248A9485
:1003200083E0982EA12CB12C9DEAC92E90E0D92E05
:1003300020E0E22E20E0F22ED0937C0080917A0023
:10034000806480937A0080917A0086FDFCCF809152
:100350007800A0917900BA2FA82F2FEF30E00E94EB
:100360006402A50194010E941402C22F732E022F71
:10037000132F61E089E00E94C7000115110551F4B7
:1003800060E089E00E947B00E114F104A9F20E9480
:100390000000D2CF0F3F110511F461E0F2CFF6015A
:1003A0008491833029F140F48130C1F08230D9F05A
:1003B0000038110594F7E4CF873031F1883061F1CE
:1003C0008430B1F7809180008062809380008C2F10
:1003D000972D90938B0080938A00D6CF84B5806848
:1003E00084BDC7BDD1CF84B5806284BDC8BDCCCF2C
:1003F000809180008068809380008C2F972D90934F
:10040000890080938800C0CF8091B000806880937D
:10041000B000C093B300B8CF8091B00080628093E9
:10042000B000C093B400B0CF052E97FB1EF400942B
:100430000E942B0257FD07D00E94330207FC03D015
:100440004EF40C942B0250954095309521953F4FDA
:100450004F4F5F4F089590958095709561957F4FB0
:100460008F4F9F4F0895A1E21A2EAA1BBB1BFD01BF
:100470000DC0AA1FBB1FEE1FFF1FA217B307E40783
:10048000F50720F0A21BB30BE40BF50B661F771FDB
:10049000881F991F1A9469F76095709580959095BB
:1004A0009B01AC01BD01CF010895A29FB001B39F94
:1004B000C001A39F700D811D1124911DB29F700D6D
:1004C000811D1124911D08950E945502B7FF0895C2
:0A04D000821B930B0895F894FFCFF0
:00000001FF
